{
  "_format": "hh-sol-artifact-1",
  "contractName": "MetaWardenOPAirdrop",
  "sourceName": "contracts/MetaWardenOPAirdrop.sol",
  "abi": [
    {
      "inputs": [],
      "stateMutability": "nonpayable",
      "type": "constructor"
    },
    {
      "inputs": [
        {
          "internalType": "address[]",
          "name": "recipients",
          "type": "address[]"
        },
        {
          "internalType": "uint256[]",
          "name": "amounts",
          "type": "uint256[]"
        }
      ],
      "name": "airdrop",
      "outputs": [],
      "stateMutability": "nonpayable",
      "type": "function"
    },
    {
      "inputs": [],
      "name": "token",
      "outputs": [
        {
          "internalType": "contract IERC20",
          "name": "",
          "type": "address"
        }
      ],
      "stateMutability": "view",
      "type": "function"
    }
  ],
  "bytecode": "0x60a0604052348015600f57600080fd5b507314bb55e924f46a69aca79d8261804a75406ce2d5608052608051610446610049600039600081816055015261026c01526104466000f3fe608060405234801561001057600080fd5b50600436106100365760003560e01c8063672434821461003b578063fc0c546a14610050575b600080fd5b61004e610049366004610337565b610093565b005b6100777f000000000000000000000000000000000000000000000000000000000000000081565b6040516001600160a01b03909116815260200160405180910390f35b8281146100f65760405162461bcd60e51b815260206004820152602660248201527f526563697069656e747320616e6420616d6f756e7473206c656e677468206d696044820152650e6dac2e8c6d60d31b60648201526084015b60405180910390fd5b60005b838110156102e4576000858583818110610115576101156103a8565b905060200201602081019061012a91906103be565b90506000848484818110610140576101406103a8565b60200291909101359150506001600160a01b0382166101a15760405162461bcd60e51b815260206004820152601960248201527f496e76616c696420726563697069656e7420616464726573730000000000000060448201526064016100ed565b813b156101f05760405162461bcd60e51b815260206004820152601e60248201527f526563697069656e742063616e6e6f74206265206120636f6e7472616374000060448201526064016100ed565b600081116102405760405162461bcd60e51b815260206004820181905260248201527f416d6f756e74206d7573742062652067726561746572207468616e207a65726f60448201526064016100ed565b6040516323b872dd60e01b81523360048201526001600160a01b038381166024830152604482018390527f000000000000000000000000000000000000000000000000000000000000000016906323b872dd906064016020604051808303816000875af11580156102b5573d6000803e3d6000fd5b505050506040513d601f19601f820116820180604052508101906102d991906103ee565b5050506001016100f9565b5050505050565b60008083601f8401126102fd57600080fd5b50813567ffffffffffffffff81111561031557600080fd5b6020830191508360208260051b850101111561033057600080fd5b9250929050565b6000806000806040858703121561034d57600080fd5b843567ffffffffffffffff81111561036457600080fd5b610370878288016102eb565b909550935050602085013567ffffffffffffffff81111561039057600080fd5b61039c878288016102eb565b95989497509550505050565b634e487b7160e01b600052603260045260246000fd5b6000602082840312156103d057600080fd5b81356001600160a01b03811681146103e757600080fd5b9392505050565b60006020828403121561040057600080fd5b815180151581146103e757600080fdfea26469706673582212202073a6131047d82f38f46e635992c62c1fdf290e1d52aac5cc3701bbb27dd79a64736f6c634300081a0033",
  "linkReferences": {},
  "deployedLinkReferences": {}
}