{
  "_format": "hh-sol-artifact-1",
  "contractName": "Freezable",
  "sourceName": "contracts/Freezable.sol",
  "abi": [
    {
      "inputs": [],
      "name": "AccessControlBadConfirmation",
      "type": "error"
    },
    {
      "inputs": [
        {
          "internalType": "address",
          "name": "account",
          "type": "address"
        },
        {
          "internalType": "bytes32",
          "name": "neededRole",
          "type": "bytes32"
        }
      ],
      "name": "AccessControlUnauthorizedAccount",
      "type": "error"
    },
    {
      "anonymous": false,
      "inputs": [
        {
          "indexed": true,
          "internalType": "address",
          "name": "admin",
          "type": "address"
        }
      ],
      "name": "AdminGranted",
      "type": "event"
    },
    {
      "anonymous": false,
      "inputs": [
        {
          "indexed": true,
          "internalType": "address",
          "name": "admin",
          "type": "address"
        }
      ],
      "name": "AdminRevoked",
      "type": "event"
    },
    {
      "anonymous": false,
      "inputs": [
        {
          "indexed": true,
          "internalType": "address",
          "name": "burner",
          "type": "address"
        }
      ],
      "name": "BurnerGranted",
      "type": "event"
    },
    {
      "anonymous": false,
      "inputs": [
        {
          "indexed": true,
          "internalType": "address",
          "name": "burner",
          "type": "address"
        }
      ],
      "name": "BurnerRevoked",
      "type": "event"
    },
    {
      "anonymous": false,
      "inputs": [
        {
          "indexed": false,
          "internalType": "address",
          "name": "account",
          "type": "address"
        }
      ],
      "name": "Freeze",
      "type": "event"
    },
    {
      "anonymous": false,
      "inputs": [
        {
          "indexed": true,
          "internalType": "address",
          "name": "minter",
          "type": "address"
        }
      ],
      "name": "MinterGranted",
      "type": "event"
    },
    {
      "anonymous": false,
      "inputs": [
        {
          "indexed": true,
          "internalType": "address",
          "name": "minter",
          "type": "address"
        }
      ],
      "name": "MinterRevoked",
      "type": "event"
    },
    {
      "anonymous": false,
      "inputs": [
        {
          "indexed": true,
          "internalType": "address",
          "name": "pauser",
          "type": "address"
        }
      ],
      "name": "PauserGranted",
      "type": "event"
    },
    {
      "anonymous": false,
      "inputs": [
        {
          "indexed": true,
          "internalType": "address",
          "name": "pauser",
          "type": "address"
        }
      ],
      "name": "PauserRevoked",
      "type": "event"
    },
    {
      "anonymous": false,
      "inputs": [
        {
          "indexed": true,
          "internalType": "bytes32",
          "name": "role",
          "type": "bytes32"
        },
        {
          "indexed": true,
          "internalType": "bytes32",
          "name": "previousAdminRole",
          "type": "bytes32"
        },
        {
          "indexed": true,
          "internalType": "bytes32",
          "name": "newAdminRole",
          "type": "bytes32"
        }
      ],
      "name": "RoleAdminChanged",
      "type": "event"
    },
    {
      "anonymous": false,
      "inputs": [
        {
          "indexed": true,
          "internalType": "bytes32",
          "name": "role",
          "type": "bytes32"
        },
        {
          "indexed": true,
          "internalType": "address",
          "name": "account",
          "type": "address"
        },
        {
          "indexed": true,
          "internalType": "address",
          "name": "sender",
          "type": "address"
        }
      ],
      "name": "RoleGranted",
      "type": "event"
    },
    {
      "anonymous": false,
      "inputs": [
        {
          "indexed": true,
          "internalType": "bytes32",
          "name": "role",
          "type": "bytes32"
        },
        {
          "indexed": true,
          "internalType": "address",
          "name": "account",
          "type": "address"
        },
        {
          "indexed": true,
          "internalType": "address",
          "name": "sender",
          "type": "address"
        }
      ],
      "name": "RoleRevoked",
      "type": "event"
    },
    {
      "anonymous": false,
      "inputs": [
        {
          "indexed": false,
          "internalType": "address",
          "name": "account",
          "type": "address"
        }
      ],
      "name": "Unfreeze",
      "type": "event"
    },
    {
      "inputs": [],
      "name": "BURNER_ROLE",
      "outputs": [
        {
          "internalType": "bytes32",
          "name": "",
          "type": "bytes32"
        }
      ],
      "stateMutability": "view",
      "type": "function"
    },
    {
      "inputs": [],
      "name": "DEFAULT_ADMIN_ROLE",
      "outputs": [
        {
          "internalType": "bytes32",
          "name": "",
          "type": "bytes32"
        }
      ],
      "stateMutability": "view",
      "type": "function"
    },
    {
      "inputs": [],
      "name": "MINTER_ROLE",
      "outputs": [
        {
          "internalType": "bytes32",
          "name": "",
          "type": "bytes32"
        }
      ],
      "stateMutability": "view",
      "type": "function"
    },
    {
      "inputs": [],
      "name": "PAUSER_ROLE",
      "outputs": [
        {
          "internalType": "bytes32",
          "name": "",
          "type": "bytes32"
        }
      ],
      "stateMutability": "view",
      "type": "function"
    },
    {
      "inputs": [
        {
          "internalType": "address",
          "name": "account",
          "type": "address"
        }
      ],
      "name": "freeze",
      "outputs": [],
      "stateMutability": "nonpayable",
      "type": "function"
    },
    {
      "inputs": [
        {
          "internalType": "address",
          "name": "",
          "type": "address"
        }
      ],
      "name": "freezeAccounts",
      "outputs": [
        {
          "internalType": "bool",
          "name": "",
          "type": "bool"
        }
      ],
      "stateMutability": "view",
      "type": "function"
    },
    {
      "inputs": [
        {
          "internalType": "bytes32",
          "name": "role",
          "type": "bytes32"
        }
      ],
      "name": "getRoleAdmin",
      "outputs": [
        {
          "internalType": "bytes32",
          "name": "",
          "type": "bytes32"
        }
      ],
      "stateMutability": "view",
      "type": "function"
    },
    {
      "inputs": [
        {
          "internalType": "bytes32",
          "name": "role",
          "type": "bytes32"
        },
        {
          "internalType": "uint256",
          "name": "index",
          "type": "uint256"
        }
      ],
      "name": "getRoleMember",
      "outputs": [
        {
          "internalType": "address",
          "name": "",
          "type": "address"
        }
      ],
      "stateMutability": "view",
      "type": "function"
    },
    {
      "inputs": [
        {
          "internalType": "bytes32",
          "name": "role",
          "type": "bytes32"
        }
      ],
      "name": "getRoleMemberCount",
      "outputs": [
        {
          "internalType": "uint256",
          "name": "",
          "type": "uint256"
        }
      ],
      "stateMutability": "view",
      "type": "function"
    },
    {
      "inputs": [
        {
          "internalType": "bytes32",
          "name": "role",
          "type": "bytes32"
        }
      ],
      "name": "getRoleMembers",
      "outputs": [
        {
          "internalType": "address[]",
          "name": "",
          "type": "address[]"
        }
      ],
      "stateMutability": "view",
      "type": "function"
    },
    {
      "inputs": [
        {
          "internalType": "address",
          "name": "admin",
          "type": "address"
        }
      ],
      "name": "grantAdmin",
      "outputs": [],
      "stateMutability": "nonpayable",
      "type": "function"
    },
    {
      "inputs": [
        {
          "internalType": "address",
          "name": "burner",
          "type": "address"
        }
      ],
      "name": "grantBurner",
      "outputs": [],
      "stateMutability": "nonpayable",
      "type": "function"
    },
    {
      "inputs": [
        {
          "internalType": "address",
          "name": "minter",
          "type": "address"
        }
      ],
      "name": "grantMinter",
      "outputs": [],
      "stateMutability": "nonpayable",
      "type": "function"
    },
    {
      "inputs": [
        {
          "internalType": "address",
          "name": "pauser",
          "type": "address"
        }
      ],
      "name": "grantPauser",
      "outputs": [],
      "stateMutability": "nonpayable",
      "type": "function"
    },
    {
      "inputs": [
        {
          "internalType": "bytes32",
          "name": "role",
          "type": "bytes32"
        },
        {
          "internalType": "address",
          "name": "account",
          "type": "address"
        }
      ],
      "name": "grantRole",
      "outputs": [],
      "stateMutability": "nonpayable",
      "type": "function"
    },
    {
      "inputs": [
        {
          "internalType": "bytes32",
          "name": "role",
          "type": "bytes32"
        },
        {
          "internalType": "address",
          "name": "account",
          "type": "address"
        }
      ],
      "name": "hasRole",
      "outputs": [
        {
          "internalType": "bool",
          "name": "",
          "type": "bool"
        }
      ],
      "stateMutability": "view",
      "type": "function"
    },
    {
      "inputs": [
        {
          "internalType": "bytes32",
          "name": "role",
          "type": "bytes32"
        },
        {
          "internalType": "address",
          "name": "callerConfirmation",
          "type": "address"
        }
      ],
      "name": "renounceRole",
      "outputs": [],
      "stateMutability": "nonpayable",
      "type": "function"
    },
    {
      "inputs": [
        {
          "internalType": "address",
          "name": "admin",
          "type": "address"
        }
      ],
      "name": "revokeAdmin",
      "outputs": [],
      "stateMutability": "nonpayable",
      "type": "function"
    },
    {
      "inputs": [
        {
          "internalType": "address",
          "name": "burner",
          "type": "address"
        }
      ],
      "name": "revokeBurner",
      "outputs": [],
      "stateMutability": "nonpayable",
      "type": "function"
    },
    {
      "inputs": [
        {
          "internalType": "address",
          "name": "minter",
          "type": "address"
        }
      ],
      "name": "revokeMinter",
      "outputs": [],
      "stateMutability": "nonpayable",
      "type": "function"
    },
    {
      "inputs": [
        {
          "internalType": "address",
          "name": "pauser",
          "type": "address"
        }
      ],
      "name": "revokePauser",
      "outputs": [],
      "stateMutability": "nonpayable",
      "type": "function"
    },
    {
      "inputs": [
        {
          "internalType": "bytes32",
          "name": "role",
          "type": "bytes32"
        },
        {
          "internalType": "address",
          "name": "account",
          "type": "address"
        }
      ],
      "name": "revokeRole",
      "outputs": [],
      "stateMutability": "nonpayable",
      "type": "function"
    },
    {
      "inputs": [
        {
          "internalType": "bytes4",
          "name": "interfaceId",
          "type": "bytes4"
        }
      ],
      "name": "supportsInterface",
      "outputs": [
        {
          "internalType": "bool",
          "name": "",
          "type": "bool"
        }
      ],
      "stateMutability": "view",
      "type": "function"
    },
    {
      "inputs": [
        {
          "internalType": "address",
          "name": "account",
          "type": "address"
        }
      ],
      "name": "unfreeze",
      "outputs": [],
      "stateMutability": "nonpayable",
      "type": "function"
    }
  ],
  "bytecode": "0x6080604052348015600f57600080fd5b50610fbb8061001f6000396000f3fe608060405234801561001057600080fd5b50600436106101585760003560e01c80637fe76df0116100c3578063ca15c8731161007c578063ca15c87314610316578063cfbd488514610329578063d53913931461033c578063d547741f14610363578063e276fea314610376578063e63ab1e91461039957600080fd5b80637fe76df01461028a5780638d1fdf2f1461029d5780639010d07c146102b057806391d14854146102db578063a217fddf146102ee578063a3246ad3146102f657600080fd5b8063282c51f311610115578063282c51f3146102045780632d3456701461022b5780632f2ff15d1461023e57806335bb3e161461025157806336568abe1461026457806345c8b1a61461027757600080fd5b806301ffc9a71461015d5780630900cc331461018557806309c1d95f1461019a57806310511f96146101ad578063248a9ca3146101c0578063261707fa146101f1575b600080fd5b61017061016b366004610ddc565b6103c0565b60405190151581526020015b60405180910390f35b610198610193366004610e22565b6103eb565b005b6101986101a8366004610e22565b61047c565b6101986101bb366004610e22565b610504565b6101e36101ce366004610e3d565b60009081526020819052604090206001015490565b60405190815260200161017c565b6101986101ff366004610e22565b61058c565b6101e37f3c11d16cbaffd01df69ce1c404f6340ee057498f5f00246190ea54220576a84881565b610198610239366004610e22565b610614565b61019861024c366004610e56565b61067d565b61019861025f366004610e22565b6106a8565b610198610272366004610e56565b610711565b610198610285366004610e22565b610749565b610198610298366004610e22565b6107c8565b6101986102ab366004610e22565b610850565b6102c36102be366004610e82565b6108cb565b6040516001600160a01b03909116815260200161017c565b6101706102e9366004610e56565b6108ea565b6101e3600081565b610309610304366004610e3d565b610913565b60405161017c9190610ea4565b6101e3610324366004610e3d565b61092d565b610198610337366004610e22565b610944565b6101e37f9f2df0fed2c77648de5860a4cc508cd0818c85b8b8a1ab4ceeef8d981c8956a681565b610198610371366004610e56565b6109cc565b610170610384366004610e22565b60026020526000908152604090205460ff1681565b6101e37f65d7a28e3265b37a6474929f336521b332c1681b933f6cb9f3376673440d862a81565b60006001600160e01b03198216635a05180f60e01b14806103e557506103e5826109f1565b92915050565b6103f66000336108ea565b61041b5760405162461bcd60e51b815260040161041290610ef0565b60405180910390fd5b6104457f3c11d16cbaffd01df69ce1c404f6340ee057498f5f00246190ea54220576a848826109cc565b6040516001600160a01b038216907f95c68d58c8bb46dbb61ce85935e1c7558c94f50b79251867d374173c34ecc6c690600090a250565b6104876000336108ea565b6104a35760405162461bcd60e51b815260040161041290610ef0565b6104cd7f65d7a28e3265b37a6474929f336521b332c1681b933f6cb9f3376673440d862a8261067d565b6040516001600160a01b038216907faf52411d3c2de882b339a7ab926d658798c3e4a77e57c81895c85229688289d590600090a250565b61050f6000336108ea565b61052b5760405162461bcd60e51b815260040161041290610ef0565b6105557f3c11d16cbaffd01df69ce1c404f6340ee057498f5f00246190ea54220576a8488261067d565b6040516001600160a01b038216907fc22f252d7900b40b2cc955d3ee09048650c045668ae04007da66434d98d1da3090600090a250565b6105976000336108ea565b6105b35760405162461bcd60e51b815260040161041290610ef0565b6105dd7f9f2df0fed2c77648de5860a4cc508cd0818c85b8b8a1ab4ceeef8d981c8956a68261067d565b6040516001600160a01b038216907f93e15a6550ecfc8e6edd98132363907de724eed6c5d89ce96917f4d4ff4da1f390600090a250565b61061f6000336108ea565b61063b5760405162461bcd60e51b815260040161041290610ef0565b6106466000826109cc565b6040516001600160a01b038216907f631ff1c4e1a02c54b480a34b810e03bcee61fe38efcb243930a7f820914923e290600090a250565b60008281526020819052604090206001015461069881610a26565b6106a28383610a33565b50505050565b6106b36000336108ea565b6106cf5760405162461bcd60e51b815260040161041290610ef0565b6106da60008261067d565b6040516001600160a01b038216907f1c4e23de8d72c94b22992bd4d7b6786b215ba876af214ff63e6a0ca38fc97af490600090a250565b6001600160a01b038116331461073a5760405163334bd91960e11b815260040160405180910390fd5b6107448282610a68565b505050565b6107546000336108ea565b6107705760405162461bcd60e51b815260040161041290610ef0565b6001600160a01b038116600081815260026020908152604091829020805460ff1916905590519182527fca5069937e68fd197927055037f59d7c90bf75ac104e6e375539ef480c3ad6ee91015b60405180910390a150565b6107d36000336108ea565b6107ef5760405162461bcd60e51b815260040161041290610ef0565b6108197f65d7a28e3265b37a6474929f336521b332c1681b933f6cb9f3376673440d862a826109cc565b6040516001600160a01b038216907f2344001cd8deb0e4d38d4db424d7956b93abca3aa922ce7c5df2e4d46823add790600090a250565b61085b6000336108ea565b6108775760405162461bcd60e51b815260040161041290610ef0565b6001600160a01b038116600081815260026020908152604091829020805460ff1916600117905590519182527faf85b60d26151edd11443b704d424da6c43d0468f2235ebae3d1904dbc32304991016107bd565b60008281526001602052604081206108e39083610a95565b9392505050565b6000918252602082815260408084206001600160a01b0393909316845291905290205460ff1690565b60008181526001602052604090206060906103e590610aa1565b60008181526001602052604081206103e590610aae565b61094f6000336108ea565b61096b5760405162461bcd60e51b815260040161041290610ef0565b6109957f9f2df0fed2c77648de5860a4cc508cd0818c85b8b8a1ab4ceeef8d981c8956a6826109cc565b6040516001600160a01b038216907f44f4322f8daa225d5f4877ad0f7d3dfba248a774396f3ca99405ed40a044fe8190600090a250565b6000828152602081905260409020600101546109e781610a26565b6106a28383610a68565b60006001600160e01b03198216637965db0b60e01b14806103e557506301ffc9a760e01b6001600160e01b03198316146103e5565b610a308133610ab8565b50565b600080610a408484610af5565b905080156108e3576000848152600160205260409020610a609084610b87565b509392505050565b600080610a758484610b9c565b905080156108e3576000848152600160205260409020610a609084610c07565b60006108e38383610c1c565b606060006108e383610c46565b60006103e5825490565b610ac282826108ea565b610af15760405163e2517d3f60e01b81526001600160a01b038216600482015260248101839052604401610412565b5050565b6000610b0183836108ea565b610b7f576000838152602081815260408083206001600160a01b03861684529091529020805460ff19166001179055610b373390565b6001600160a01b0316826001600160a01b0316847f2f8788117e7eff1d82e926ec794901d17c78024a50270940304540a733656f0d60405160405180910390a45060016103e5565b5060006103e5565b60006108e3836001600160a01b038416610ca2565b6000610ba883836108ea565b15610b7f576000838152602081815260408083206001600160a01b0386168085529252808320805460ff1916905551339286917ff6391f5c32d9c69d2a47ea670b442974b53935d1edc7fd64eb21e047a839171b9190a45060016103e5565b60006108e3836001600160a01b038416610ce9565b6000826000018281548110610c3357610c33610f38565b9060005260206000200154905092915050565b606081600001805480602002602001604051908101604052809291908181526020018280548015610c9657602002820191906000526020600020905b815481526020019060010190808311610c82575b50505050509050919050565b6000818152600183016020526040812054610b7f575081546001818101845560008481526020808220909301849055845484825282860190935260409020919091556103e5565b60008181526001830160205260408120548015610dd2576000610d0d600183610f4e565b8554909150600090610d2190600190610f4e565b9050808214610d86576000866000018281548110610d4157610d41610f38565b9060005260206000200154905080876000018481548110610d6457610d64610f38565b6000918252602080832090910192909255918252600188019052604090208390555b8554869080610d9757610d97610f6f565b6001900381819060005260206000200160009055905585600101600086815260200190815260200160002060009055600193505050506103e5565b60009150506103e5565b600060208284031215610dee57600080fd5b81356001600160e01b0319811681146108e357600080fd5b80356001600160a01b0381168114610e1d57600080fd5b919050565b600060208284031215610e3457600080fd5b6108e382610e06565b600060208284031215610e4f57600080fd5b5035919050565b60008060408385031215610e6957600080fd5b82359150610e7960208401610e06565b90509250929050565b60008060408385031215610e9557600080fd5b50508035926020909101359150565b602080825282518282018190526000918401906040840190835b81811015610ee55783516001600160a01b0316835260209384019390920191600101610ebe565b509095945050505050565b60208082526028908201527f43616c6c657220646f6573206e6f742068617320612044454641554c545f41446040820152674d494e5f524f4c4560c01b606082015260800190565b634e487b7160e01b600052603260045260246000fd5b818103818111156103e557634e487b7160e01b600052601160045260246000fd5b634e487b7160e01b600052603160045260246000fdfea2646970667358221220c5ca8d1ea7a6de61fa05116f3eefe67b61e2e85fe56962234ad2708723953aa464736f6c634300081a0033",
  "linkReferences": {},
  "deployedLinkReferences": {}
}