{
  "_format": "hh-sol-artifact-1",
  "contractName": "Token",
  "sourceName": "contracts/Token.sol",
  "abi": [
    {
      "inputs": [],
      "stateMutability": "nonpayable",
      "type": "constructor"
    },
    {
      "inputs": [],
      "name": "AccessControlBadConfirmation",
      "type": "error"
    },
    {
      "inputs": [
        {
          "internalType": "address",
          "name": "account",
          "type": "address"
        },
        {
          "internalType": "bytes32",
          "name": "neededRole",
          "type": "bytes32"
        }
      ],
      "name": "AccessControlUnauthorizedAccount",
      "type": "error"
    },
    {
      "inputs": [
        {
          "internalType": "address",
          "name": "account",
          "type": "address"
        }
      ],
      "name": "AccountHasBeenFrozen",
      "type": "error"
    },
    {
      "inputs": [],
      "name": "ECDSAInvalidSignature",
      "type": "error"
    },
    {
      "inputs": [
        {
          "internalType": "uint256",
          "name": "length",
          "type": "uint256"
        }
      ],
      "name": "ECDSAInvalidSignatureLength",
      "type": "error"
    },
    {
      "inputs": [
        {
          "internalType": "bytes32",
          "name": "s",
          "type": "bytes32"
        }
      ],
      "name": "ECDSAInvalidSignatureS",
      "type": "error"
    },
    {
      "inputs": [
        {
          "internalType": "address",
          "name": "spender",
          "type": "address"
        },
        {
          "internalType": "uint256",
          "name": "allowance",
          "type": "uint256"
        },
        {
          "internalType": "uint256",
          "name": "needed",
          "type": "uint256"
        }
      ],
      "name": "ERC20InsufficientAllowance",
      "type": "error"
    },
    {
      "inputs": [
        {
          "internalType": "address",
          "name": "sender",
          "type": "address"
        },
        {
          "internalType": "uint256",
          "name": "balance",
          "type": "uint256"
        },
        {
          "internalType": "uint256",
          "name": "needed",
          "type": "uint256"
        }
      ],
      "name": "ERC20InsufficientBalance",
      "type": "error"
    },
    {
      "inputs": [
        {
          "internalType": "address",
          "name": "approver",
          "type": "address"
        }
      ],
      "name": "ERC20InvalidApprover",
      "type": "error"
    },
    {
      "inputs": [
        {
          "internalType": "address",
          "name": "receiver",
          "type": "address"
        }
      ],
      "name": "ERC20InvalidReceiver",
      "type": "error"
    },
    {
      "inputs": [
        {
          "internalType": "address",
          "name": "sender",
          "type": "address"
        }
      ],
      "name": "ERC20InvalidSender",
      "type": "error"
    },
    {
      "inputs": [
        {
          "internalType": "address",
          "name": "spender",
          "type": "address"
        }
      ],
      "name": "ERC20InvalidSpender",
      "type": "error"
    },
    {
      "inputs": [
        {
          "internalType": "uint256",
          "name": "deadline",
          "type": "uint256"
        }
      ],
      "name": "ERC2612ExpiredSignature",
      "type": "error"
    },
    {
      "inputs": [
        {
          "internalType": "address",
          "name": "signer",
          "type": "address"
        },
        {
          "internalType": "address",
          "name": "owner",
          "type": "address"
        }
      ],
      "name": "ERC2612InvalidSigner",
      "type": "error"
    },
    {
      "inputs": [],
      "name": "EnforcedPause",
      "type": "error"
    },
    {
      "inputs": [],
      "name": "ExpectedPause",
      "type": "error"
    },
    {
      "inputs": [
        {
          "internalType": "address",
          "name": "account",
          "type": "address"
        },
        {
          "internalType": "uint256",
          "name": "currentNonce",
          "type": "uint256"
        }
      ],
      "name": "InvalidAccountNonce",
      "type": "error"
    },
    {
      "inputs": [],
      "name": "InvalidShortString",
      "type": "error"
    },
    {
      "inputs": [
        {
          "internalType": "string",
          "name": "str",
          "type": "string"
        }
      ],
      "name": "StringTooLong",
      "type": "error"
    },
    {
      "anonymous": false,
      "inputs": [
        {
          "indexed": true,
          "internalType": "address",
          "name": "admin",
          "type": "address"
        }
      ],
      "name": "AdminGranted",
      "type": "event"
    },
    {
      "anonymous": false,
      "inputs": [
        {
          "indexed": true,
          "internalType": "address",
          "name": "admin",
          "type": "address"
        }
      ],
      "name": "AdminRevoked",
      "type": "event"
    },
    {
      "anonymous": false,
      "inputs": [
        {
          "indexed": true,
          "internalType": "address",
          "name": "owner",
          "type": "address"
        },
        {
          "indexed": true,
          "internalType": "address",
          "name": "spender",
          "type": "address"
        },
        {
          "indexed": false,
          "internalType": "uint256",
          "name": "value",
          "type": "uint256"
        }
      ],
      "name": "Approval",
      "type": "event"
    },
    {
      "anonymous": false,
      "inputs": [
        {
          "indexed": true,
          "internalType": "address",
          "name": "from",
          "type": "address"
        },
        {
          "indexed": false,
          "internalType": "uint256",
          "name": "amount",
          "type": "uint256"
        }
      ],
      "name": "Burn",
      "type": "event"
    },
    {
      "anonymous": false,
      "inputs": [
        {
          "indexed": true,
          "internalType": "address",
          "name": "burner",
          "type": "address"
        }
      ],
      "name": "BurnerGranted",
      "type": "event"
    },
    {
      "anonymous": false,
      "inputs": [
        {
          "indexed": true,
          "internalType": "address",
          "name": "burner",
          "type": "address"
        }
      ],
      "name": "BurnerRevoked",
      "type": "event"
    },
    {
      "anonymous": false,
      "inputs": [],
      "name": "EIP712DomainChanged",
      "type": "event"
    },
    {
      "anonymous": false,
      "inputs": [
        {
          "indexed": false,
          "internalType": "address",
          "name": "account",
          "type": "address"
        }
      ],
      "name": "Freeze",
      "type": "event"
    },
    {
      "anonymous": false,
      "inputs": [
        {
          "indexed": false,
          "internalType": "string",
          "name": "memo",
          "type": "string"
        }
      ],
      "name": "Memo",
      "type": "event"
    },
    {
      "anonymous": false,
      "inputs": [
        {
          "indexed": true,
          "internalType": "address",
          "name": "to",
          "type": "address"
        },
        {
          "indexed": false,
          "internalType": "uint256",
          "name": "amount",
          "type": "uint256"
        }
      ],
      "name": "Mint",
      "type": "event"
    },
    {
      "anonymous": false,
      "inputs": [
        {
          "indexed": true,
          "internalType": "address",
          "name": "minter",
          "type": "address"
        }
      ],
      "name": "MinterGranted",
      "type": "event"
    },
    {
      "anonymous": false,
      "inputs": [
        {
          "indexed": true,
          "internalType": "address",
          "name": "minter",
          "type": "address"
        }
      ],
      "name": "MinterRevoked",
      "type": "event"
    },
    {
      "anonymous": false,
      "inputs": [
        {
          "indexed": false,
          "internalType": "address",
          "name": "account",
          "type": "address"
        }
      ],
      "name": "Paused",
      "type": "event"
    },
    {
      "anonymous": false,
      "inputs": [
        {
          "indexed": true,
          "internalType": "address",
          "name": "pauser",
          "type": "address"
        }
      ],
      "name": "PauserGranted",
      "type": "event"
    },
    {
      "anonymous": false,
      "inputs": [
        {
          "indexed": true,
          "internalType": "address",
          "name": "pauser",
          "type": "address"
        }
      ],
      "name": "PauserRevoked",
      "type": "event"
    },
    {
      "anonymous": false,
      "inputs": [
        {
          "indexed": true,
          "internalType": "bytes32",
          "name": "role",
          "type": "bytes32"
        },
        {
          "indexed": true,
          "internalType": "bytes32",
          "name": "previousAdminRole",
          "type": "bytes32"
        },
        {
          "indexed": true,
          "internalType": "bytes32",
          "name": "newAdminRole",
          "type": "bytes32"
        }
      ],
      "name": "RoleAdminChanged",
      "type": "event"
    },
    {
      "anonymous": false,
      "inputs": [
        {
          "indexed": true,
          "internalType": "bytes32",
          "name": "role",
          "type": "bytes32"
        },
        {
          "indexed": true,
          "internalType": "address",
          "name": "account",
          "type": "address"
        },
        {
          "indexed": true,
          "internalType": "address",
          "name": "sender",
          "type": "address"
        }
      ],
      "name": "RoleGranted",
      "type": "event"
    },
    {
      "anonymous": false,
      "inputs": [
        {
          "indexed": true,
          "internalType": "bytes32",
          "name": "role",
          "type": "bytes32"
        },
        {
          "indexed": true,
          "internalType": "address",
          "name": "account",
          "type": "address"
        },
        {
          "indexed": true,
          "internalType": "address",
          "name": "sender",
          "type": "address"
        }
      ],
      "name": "RoleRevoked",
      "type": "event"
    },
    {
      "anonymous": false,
      "inputs": [
        {
          "indexed": true,
          "internalType": "address",
          "name": "from",
          "type": "address"
        },
        {
          "indexed": true,
          "internalType": "address",
          "name": "to",
          "type": "address"
        },
        {
          "indexed": false,
          "internalType": "uint256",
          "name": "value",
          "type": "uint256"
        }
      ],
      "name": "Transfer",
      "type": "event"
    },
    {
      "anonymous": false,
      "inputs": [
        {
          "indexed": false,
          "internalType": "address",
          "name": "account",
          "type": "address"
        }
      ],
      "name": "Unfreeze",
      "type": "event"
    },
    {
      "anonymous": false,
      "inputs": [
        {
          "indexed": false,
          "internalType": "address",
          "name": "account",
          "type": "address"
        }
      ],
      "name": "Unpaused",
      "type": "event"
    },
    {
      "inputs": [],
      "name": "BURNER_ROLE",
      "outputs": [
        {
          "internalType": "bytes32",
          "name": "",
          "type": "bytes32"
        }
      ],
      "stateMutability": "view",
      "type": "function"
    },
    {
      "inputs": [],
      "name": "DEFAULT_ADMIN_ROLE",
      "outputs": [
        {
          "internalType": "bytes32",
          "name": "",
          "type": "bytes32"
        }
      ],
      "stateMutability": "view",
      "type": "function"
    },
    {
      "inputs": [],
      "name": "DOMAIN_SEPARATOR",
      "outputs": [
        {
          "internalType": "bytes32",
          "name": "",
          "type": "bytes32"
        }
      ],
      "stateMutability": "view",
      "type": "function"
    },
    {
      "inputs": [],
      "name": "MINTER_ROLE",
      "outputs": [
        {
          "internalType": "bytes32",
          "name": "",
          "type": "bytes32"
        }
      ],
      "stateMutability": "view",
      "type": "function"
    },
    {
      "inputs": [],
      "name": "PAUSER_ROLE",
      "outputs": [
        {
          "internalType": "bytes32",
          "name": "",
          "type": "bytes32"
        }
      ],
      "stateMutability": "view",
      "type": "function"
    },
    {
      "inputs": [
        {
          "internalType": "address",
          "name": "owner",
          "type": "address"
        },
        {
          "internalType": "address",
          "name": "spender",
          "type": "address"
        }
      ],
      "name": "allowance",
      "outputs": [
        {
          "internalType": "uint256",
          "name": "",
          "type": "uint256"
        }
      ],
      "stateMutability": "view",
      "type": "function"
    },
    {
      "inputs": [
        {
          "internalType": "address",
          "name": "spender",
          "type": "address"
        },
        {
          "internalType": "uint256",
          "name": "value",
          "type": "uint256"
        }
      ],
      "name": "approve",
      "outputs": [
        {
          "internalType": "bool",
          "name": "",
          "type": "bool"
        }
      ],
      "stateMutability": "nonpayable",
      "type": "function"
    },
    {
      "inputs": [
        {
          "internalType": "address",
          "name": "account",
          "type": "address"
        }
      ],
      "name": "balanceOf",
      "outputs": [
        {
          "internalType": "uint256",
          "name": "",
          "type": "uint256"
        }
      ],
      "stateMutability": "view",
      "type": "function"
    },
    {
      "inputs": [
        {
          "internalType": "uint256",
          "name": "amount",
          "type": "uint256"
        }
      ],
      "name": "burn",
      "outputs": [],
      "stateMutability": "nonpayable",
      "type": "function"
    },
    {
      "inputs": [
        {
          "internalType": "address",
          "name": "from",
          "type": "address"
        },
        {
          "internalType": "uint256",
          "name": "amount",
          "type": "uint256"
        }
      ],
      "name": "burnFrom",
      "outputs": [],
      "stateMutability": "nonpayable",
      "type": "function"
    },
    {
      "inputs": [],
      "name": "decimals",
      "outputs": [
        {
          "internalType": "uint8",
          "name": "",
          "type": "uint8"
        }
      ],
      "stateMutability": "view",
      "type": "function"
    },
    {
      "inputs": [],
      "name": "eip712Domain",
      "outputs": [
        {
          "internalType": "bytes1",
          "name": "fields",
          "type": "bytes1"
        },
        {
          "internalType": "string",
          "name": "name",
          "type": "string"
        },
        {
          "internalType": "string",
          "name": "version",
          "type": "string"
        },
        {
          "internalType": "uint256",
          "name": "chainId",
          "type": "uint256"
        },
        {
          "internalType": "address",
          "name": "verifyingContract",
          "type": "address"
        },
        {
          "internalType": "bytes32",
          "name": "salt",
          "type": "bytes32"
        },
        {
          "internalType": "uint256[]",
          "name": "extensions",
          "type": "uint256[]"
        }
      ],
      "stateMutability": "view",
      "type": "function"
    },
    {
      "inputs": [
        {
          "internalType": "address",
          "name": "account",
          "type": "address"
        }
      ],
      "name": "freeze",
      "outputs": [],
      "stateMutability": "nonpayable",
      "type": "function"
    },
    {
      "inputs": [
        {
          "internalType": "address",
          "name": "",
          "type": "address"
        }
      ],
      "name": "freezeAccounts",
      "outputs": [
        {
          "internalType": "bool",
          "name": "",
          "type": "bool"
        }
      ],
      "stateMutability": "view",
      "type": "function"
    },
    {
      "inputs": [
        {
          "internalType": "bytes32",
          "name": "role",
          "type": "bytes32"
        }
      ],
      "name": "getRoleAdmin",
      "outputs": [
        {
          "internalType": "bytes32",
          "name": "",
          "type": "bytes32"
        }
      ],
      "stateMutability": "view",
      "type": "function"
    },
    {
      "inputs": [
        {
          "internalType": "bytes32",
          "name": "role",
          "type": "bytes32"
        },
        {
          "internalType": "uint256",
          "name": "index",
          "type": "uint256"
        }
      ],
      "name": "getRoleMember",
      "outputs": [
        {
          "internalType": "address",
          "name": "",
          "type": "address"
        }
      ],
      "stateMutability": "view",
      "type": "function"
    },
    {
      "inputs": [
        {
          "internalType": "bytes32",
          "name": "role",
          "type": "bytes32"
        }
      ],
      "name": "getRoleMemberCount",
      "outputs": [
        {
          "internalType": "uint256",
          "name": "",
          "type": "uint256"
        }
      ],
      "stateMutability": "view",
      "type": "function"
    },
    {
      "inputs": [
        {
          "internalType": "bytes32",
          "name": "role",
          "type": "bytes32"
        }
      ],
      "name": "getRoleMembers",
      "outputs": [
        {
          "internalType": "address[]",
          "name": "",
          "type": "address[]"
        }
      ],
      "stateMutability": "view",
      "type": "function"
    },
    {
      "inputs": [
        {
          "internalType": "address",
          "name": "admin",
          "type": "address"
        }
      ],
      "name": "grantAdmin",
      "outputs": [],
      "stateMutability": "nonpayable",
      "type": "function"
    },
    {
      "inputs": [
        {
          "internalType": "address",
          "name": "burner",
          "type": "address"
        }
      ],
      "name": "grantBurner",
      "outputs": [],
      "stateMutability": "nonpayable",
      "type": "function"
    },
    {
      "inputs": [
        {
          "internalType": "address",
          "name": "minter",
          "type": "address"
        }
      ],
      "name": "grantMinter",
      "outputs": [],
      "stateMutability": "nonpayable",
      "type": "function"
    },
    {
      "inputs": [
        {
          "internalType": "address",
          "name": "pauser",
          "type": "address"
        }
      ],
      "name": "grantPauser",
      "outputs": [],
      "stateMutability": "nonpayable",
      "type": "function"
    },
    {
      "inputs": [
        {
          "internalType": "bytes32",
          "name": "role",
          "type": "bytes32"
        },
        {
          "internalType": "address",
          "name": "account",
          "type": "address"
        }
      ],
      "name": "grantRole",
      "outputs": [],
      "stateMutability": "nonpayable",
      "type": "function"
    },
    {
      "inputs": [
        {
          "internalType": "bytes32",
          "name": "role",
          "type": "bytes32"
        },
        {
          "internalType": "address",
          "name": "account",
          "type": "address"
        }
      ],
      "name": "hasRole",
      "outputs": [
        {
          "internalType": "bool",
          "name": "",
          "type": "bool"
        }
      ],
      "stateMutability": "view",
      "type": "function"
    },
    {
      "inputs": [
        {
          "internalType": "uint256",
          "name": "amount",
          "type": "uint256"
        }
      ],
      "name": "mint",
      "outputs": [],
      "stateMutability": "nonpayable",
      "type": "function"
    },
    {
      "inputs": [
        {
          "internalType": "address",
          "name": "to",
          "type": "address"
        },
        {
          "internalType": "uint256",
          "name": "amount",
          "type": "uint256"
        }
      ],
      "name": "mintTo",
      "outputs": [],
      "stateMutability": "nonpayable",
      "type": "function"
    },
    {
      "inputs": [],
      "name": "name",
      "outputs": [
        {
          "internalType": "string",
          "name": "",
          "type": "string"
        }
      ],
      "stateMutability": "view",
      "type": "function"
    },
    {
      "inputs": [
        {
          "internalType": "address",
          "name": "owner",
          "type": "address"
        }
      ],
      "name": "nonces",
      "outputs": [
        {
          "internalType": "uint256",
          "name": "",
          "type": "uint256"
        }
      ],
      "stateMutability": "view",
      "type": "function"
    },
    {
      "inputs": [],
      "name": "pause",
      "outputs": [],
      "stateMutability": "nonpayable",
      "type": "function"
    },
    {
      "inputs": [],
      "name": "paused",
      "outputs": [
        {
          "internalType": "bool",
          "name": "",
          "type": "bool"
        }
      ],
      "stateMutability": "view",
      "type": "function"
    },
    {
      "inputs": [
        {
          "internalType": "address",
          "name": "owner",
          "type": "address"
        },
        {
          "internalType": "address",
          "name": "spender",
          "type": "address"
        },
        {
          "internalType": "uint256",
          "name": "value",
          "type": "uint256"
        },
        {
          "internalType": "uint256",
          "name": "deadline",
          "type": "uint256"
        },
        {
          "internalType": "uint8",
          "name": "v",
          "type": "uint8"
        },
        {
          "internalType": "bytes32",
          "name": "r",
          "type": "bytes32"
        },
        {
          "internalType": "bytes32",
          "name": "s",
          "type": "bytes32"
        }
      ],
      "name": "permit",
      "outputs": [],
      "stateMutability": "nonpayable",
      "type": "function"
    },
    {
      "inputs": [
        {
          "internalType": "bytes32",
          "name": "role",
          "type": "bytes32"
        },
        {
          "internalType": "address",
          "name": "callerConfirmation",
          "type": "address"
        }
      ],
      "name": "renounceRole",
      "outputs": [],
      "stateMutability": "nonpayable",
      "type": "function"
    },
    {
      "inputs": [
        {
          "internalType": "address",
          "name": "admin",
          "type": "address"
        }
      ],
      "name": "revokeAdmin",
      "outputs": [],
      "stateMutability": "nonpayable",
      "type": "function"
    },
    {
      "inputs": [
        {
          "internalType": "address",
          "name": "burner",
          "type": "address"
        }
      ],
      "name": "revokeBurner",
      "outputs": [],
      "stateMutability": "nonpayable",
      "type": "function"
    },
    {
      "inputs": [
        {
          "internalType": "address",
          "name": "minter",
          "type": "address"
        }
      ],
      "name": "revokeMinter",
      "outputs": [],
      "stateMutability": "nonpayable",
      "type": "function"
    },
    {
      "inputs": [
        {
          "internalType": "address",
          "name": "pauser",
          "type": "address"
        }
      ],
      "name": "revokePauser",
      "outputs": [],
      "stateMutability": "nonpayable",
      "type": "function"
    },
    {
      "inputs": [
        {
          "internalType": "bytes32",
          "name": "role",
          "type": "bytes32"
        },
        {
          "internalType": "address",
          "name": "account",
          "type": "address"
        }
      ],
      "name": "revokeRole",
      "outputs": [],
      "stateMutability": "nonpayable",
      "type": "function"
    },
    {
      "inputs": [
        {
          "internalType": "bytes4",
          "name": "interfaceId",
          "type": "bytes4"
        }
      ],
      "name": "supportsInterface",
      "outputs": [
        {
          "internalType": "bool",
          "name": "",
          "type": "bool"
        }
      ],
      "stateMutability": "view",
      "type": "function"
    },
    {
      "inputs": [],
      "name": "symbol",
      "outputs": [
        {
          "internalType": "string",
          "name": "",
          "type": "string"
        }
      ],
      "stateMutability": "view",
      "type": "function"
    },
    {
      "inputs": [],
      "name": "totalBurnAmount",
      "outputs": [
        {
          "internalType": "uint256",
          "name": "",
          "type": "uint256"
        }
      ],
      "stateMutability": "view",
      "type": "function"
    },
    {
      "inputs": [],
      "name": "totalMintAmount",
      "outputs": [
        {
          "internalType": "uint256",
          "name": "",
          "type": "uint256"
        }
      ],
      "stateMutability": "view",
      "type": "function"
    },
    {
      "inputs": [],
      "name": "totalSupply",
      "outputs": [
        {
          "internalType": "uint256",
          "name": "",
          "type": "uint256"
        }
      ],
      "stateMutability": "view",
      "type": "function"
    },
    {
      "inputs": [],
      "name": "totalTransferedAmount",
      "outputs": [
        {
          "internalType": "uint256",
          "name": "",
          "type": "uint256"
        }
      ],
      "stateMutability": "view",
      "type": "function"
    },
    {
      "inputs": [
        {
          "internalType": "address",
          "name": "to",
          "type": "address"
        },
        {
          "internalType": "uint256",
          "name": "amount",
          "type": "uint256"
        },
        {
          "internalType": "string",
          "name": "memo",
          "type": "string"
        }
      ],
      "name": "transfer",
      "outputs": [],
      "stateMutability": "nonpayable",
      "type": "function"
    },
    {
      "inputs": [
        {
          "internalType": "address",
          "name": "to",
          "type": "address"
        },
        {
          "internalType": "uint256",
          "name": "amount",
          "type": "uint256"
        }
      ],
      "name": "transfer",
      "outputs": [
        {
          "internalType": "bool",
          "name": "",
          "type": "bool"
        }
      ],
      "stateMutability": "nonpayable",
      "type": "function"
    },
    {
      "inputs": [
        {
          "internalType": "address",
          "name": "from",
          "type": "address"
        },
        {
          "internalType": "address",
          "name": "to",
          "type": "address"
        },
        {
          "internalType": "uint256",
          "name": "amount",
          "type": "uint256"
        },
        {
          "internalType": "string",
          "name": "memo",
          "type": "string"
        }
      ],
      "name": "transferFrom",
      "outputs": [],
      "stateMutability": "nonpayable",
      "type": "function"
    },
    {
      "inputs": [
        {
          "internalType": "address",
          "name": "from",
          "type": "address"
        },
        {
          "internalType": "address",
          "name": "to",
          "type": "address"
        },
        {
          "internalType": "uint256",
          "name": "amount",
          "type": "uint256"
        }
      ],
      "name": "transferFrom",
      "outputs": [
        {
          "internalType": "bool",
          "name": "",
          "type": "bool"
        }
      ],
      "stateMutability": "nonpayable",
      "type": "function"
    },
    {
      "inputs": [
        {
          "internalType": "address",
          "name": "account",
          "type": "address"
        }
      ],
      "name": "unfreeze",
      "outputs": [],
      "stateMutability": "nonpayable",
      "type": "function"
    },
    {
      "inputs": [],
      "name": "unpause",
      "outputs": [],
      "stateMutability": "nonpayable",
      "type": "function"
    }
  ],
  "bytecode": "0x6101606040526000600c556000600d556000600e5534801561002057600080fd5b506040518060400160405280600281526020016104f560f41b81525080604051806040016040528060018152602001603160f81b81525060405180604001604052806007815260200166054657374204f560cc1b8152506040518060400160405280600281526020016104f560f41b81525081600390816100a19190610452565b5060046100ae8282610452565b50506005805460ff19169055506100c68260066101fe565b610120526100d58160076101fe565b61014052815160208084019190912060e052815190820120610100524660a05261016260e05161010051604080517f8b73c3c69bb8fe3d512ecc4cf759cc79239f7b179b0ffacaa9a75d522b39400f60208201529081019290925260608201524660808201523060a082015260009060c00160405160208183030381529060405280519060200120905090565b60805250503060c05250610177600033610231565b506101a27f9f2df0fed2c77648de5860a4cc508cd0818c85b8b8a1ab4ceeef8d981c8956a633610231565b506101cd7f3c11d16cbaffd01df69ce1c404f6340ee057498f5f00246190ea54220576a84833610231565b506101f87f65d7a28e3265b37a6474929f336521b332c1681b933f6cb9f3376673440d862a33610231565b50610582565b600060208351101561021a5761021383610267565b905061022b565b816102258482610452565b5060ff90505b92915050565b60008061023e84846102ae565b90508015610260576000848152600a6020526040902061025e908461035c565b505b9392505050565b600080829050601f8151111561029b578260405163305a27a960e01b81526004016102929190610510565b60405180910390fd5b80516102a68261055e565b179392505050565b60008281526009602090815260408083206001600160a01b038516845290915281205460ff166103545760008381526009602090815260408083206001600160a01b03861684529091529020805460ff1916600117905561030c3390565b6001600160a01b0316826001600160a01b0316847f2f8788117e7eff1d82e926ec794901d17c78024a50270940304540a733656f0d60405160405180910390a450600161022b565b50600061022b565b6000610260836001600160a01b03841660008181526001830160205260408120546103545750815460018181018455600084815260208082209093018490558454848252828601909352604090209190915561022b565b634e487b7160e01b600052604160045260246000fd5b600181811c908216806103dd57607f821691505b6020821081036103fd57634e487b7160e01b600052602260045260246000fd5b50919050565b601f82111561044d57806000526020600020601f840160051c8101602085101561042a5750805b601f840160051c820191505b8181101561044a5760008155600101610436565b50505b505050565b81516001600160401b0381111561046b5761046b6103b3565b61047f8161047984546103c9565b84610403565b6020601f8211600181146104b3576000831561049b5750848201515b600019600385901b1c1916600184901b17845561044a565b600084815260208120601f198516915b828110156104e357878501518255602094850194600190920191016104c3565b50848210156105015786840151600019600387901b60f8161c191681555b50505050600190811b01905550565b602081526000825180602084015260005b8181101561053e5760208186018101516040868401015201610521565b506000604082850101526040601f19601f83011684010191505092915050565b805160208083015191908110156103fd5760001960209190910360031b1b16919050565b60805160a05160c05160e0516101005161012051610140516127b06105dc600039600061175101526000611724015260006115a001526000611578015260006114d3015260006114fd0152600061152701526127b06000f3fe608060405234801561001057600080fd5b50600436106102bb5760003560e01c80635a77e12a11610182578063a0712d68116100e9578063d0045341116100a2578063d547741f1161007c578063d547741f14610625578063dd62ed3e14610638578063e276fea314610671578063e63ab1e91461069457600080fd5b8063d0045341146105f4578063d505accf146105fd578063d53913931461061057600080fd5b8063a0712d6814610580578063a217fddf14610593578063a3246ad31461059b578063a9059cbb146105bb578063ca15c873146105ce578063cfbd4885146105e157600080fd5b80638456cb591161013b5780638456cb591461050457806384b0196e1461050c5780638d1fdf2f146105275780639010d07c1461053a57806391d148541461056557806395d89b411461057857600080fd5b80635a77e12a1461048e5780635c975abb1461049757806370a08231146104a257806379cc6790146104cb5780637ecebe00146104de5780637fe76df0146104f157600080fd5b80632d345670116102265780633cd4fe7c116101df5780633cd4fe7c146104315780633f4ba83a1461043a57806342966c6814610442578063449a52f81461045557806345c8b1a61461046857806356b8c7241461047b57600080fd5b80632d345670146103ce5780632f2ff15d146103e1578063313ce567146103f457806335bb3e16146104035780633644e5151461041657806336568abe1461041e57600080fd5b806318160ddd1161027857806318160ddd1461034b5780631af716ba1461035d57806323b872dd14610370578063248a9ca314610383578063261707fa146103a6578063282c51f3146103b957600080fd5b806301ffc9a7146102c057806306fdde03146102e85780630900cc33146102fd578063095ea7b31461031257806309c1d95f1461032557806310511f9614610338575b600080fd5b6102d36102ce36600461212b565b6106a9565b60405190151581526020015b60405180910390f35b6102f06106d4565b6040516102df919061219b565b61031061030b3660046121ca565b610766565b005b6102d36103203660046121e5565b6107e5565b6103106103333660046121ca565b6107fd565b6103106103463660046121ca565b610873565b6002545b6040519081526020016102df565b61031061036b3660046122b4565b6108e9565b6102d361037e36600461231c565b61097b565b61034f610391366004612359565b60009081526009602052604090206001015490565b6103106103b43660046121ca565b6109e6565b61034f60008051602061271b83398151915281565b6103106103dc3660046121ca565b610a5c565b6103106103ef366004612372565b610ac5565b604051601281526020016102df565b6103106104113660046121ca565b610af0565b61034f610b59565b61031061042c366004612372565b610b68565b61034f600e5481565b610310610ba0565b610310610450366004612359565b610bde565b6103106104633660046121e5565b610c75565b6103106104763660046121ca565b610d05565b61031061048936600461239e565b610d84565b61034f600d5481565b60055460ff166102d3565b61034f6104b03660046121ca565b6001600160a01b031660009081526020819052604090205490565b6103106104d93660046121e5565b610e13565b61034f6104ec3660046121ca565b610f34565b6103106104ff3660046121ca565b610f52565b610310610fc8565b610514611004565b6040516102df97969594939291906123f5565b6103106105353660046121ca565b61104a565b61054d61054836600461248d565b6110c5565b6040516001600160a01b0390911681526020016102df565b6102d3610573366004612372565b6110e4565b6102f061110f565b61031061058e366004612359565b61111e565b61034f600081565b6105ae6105a9366004612359565b6111ab565b6040516102df91906124af565b6102d36105c93660046121e5565b6111c5565b61034f6105dc366004612359565b611232565b6103106105ef3660046121ca565b611249565b61034f600c5481565b61031061060b3660046124fb565b6112bf565b61034f60008051602061275b83398151915281565b610310610633366004612372565b6113f9565b61034f61064636600461256e565b6001600160a01b03918216600090815260016020908152604080832093909416825291909152205490565b6102d361067f3660046121ca565b600b6020526000908152604090205460ff1681565b61034f60008051602061273b83398151915281565b60006001600160e01b03198216635a05180f60e01b14806106ce57506106ce8261141e565b92915050565b6060600380546106e390612598565b80601f016020809104026020016040519081016040528092919081815260200182805461070f90612598565b801561075c5780601f106107315761010080835404028352916020019161075c565b820191906000526020600020905b81548152906001019060200180831161073f57829003601f168201915b5050505050905090565b6107716000336110e4565b6107965760405162461bcd60e51b815260040161078d906125d2565b60405180910390fd5b6107ae60008051602061271b833981519152826113f9565b6040516001600160a01b038216907f95c68d58c8bb46dbb61ce85935e1c7558c94f50b79251867d374173c34ecc6c690600090a250565b6000336107f3818585611453565b5060019392505050565b6108086000336110e4565b6108245760405162461bcd60e51b815260040161078d906125d2565b61083c60008051602061273b83398151915282610ac5565b6040516001600160a01b038216907faf52411d3c2de882b339a7ab926d658798c3e4a77e57c81895c85229688289d590600090a250565b61087e6000336110e4565b61089a5760405162461bcd60e51b815260040161078d906125d2565b6108b260008051602061271b83398151915282610ac5565b6040516001600160a01b038216907fc22f252d7900b40b2cc955d3ee09048650c045668ae04007da66434d98d1da3090600090a250565b336000818152600b602052604090205460ff161561092557604051638af9883b60e01b81526001600160a01b038216600482015260240161078d565b61093085858561097b565b1561097457815115610974577fb0734c6ca9ae9b7406dd80224cb0488aed0928eef358da7449505fa59b8d7a2a8260405161096b919061219b565b60405180910390a15b5050505050565b336000818152600b602052604081205490919060ff16156109ba57604051638af9883b60e01b81526001600160a01b038216600482015260240161078d565b82600e60008282546109cc9190612630565b909155506109dd9050858585611460565b95945050505050565b6109f16000336110e4565b610a0d5760405162461bcd60e51b815260040161078d906125d2565b610a2560008051602061275b83398151915282610ac5565b6040516001600160a01b038216907f93e15a6550ecfc8e6edd98132363907de724eed6c5d89ce96917f4d4ff4da1f390600090a250565b610a676000336110e4565b610a835760405162461bcd60e51b815260040161078d906125d2565b610a8e6000826113f9565b6040516001600160a01b038216907f631ff1c4e1a02c54b480a34b810e03bcee61fe38efcb243930a7f820914923e290600090a250565b600082815260096020526040902060010154610ae081611484565b610aea8383611491565b50505050565b610afb6000336110e4565b610b175760405162461bcd60e51b815260040161078d906125d2565b610b22600082610ac5565b6040516001600160a01b038216907f1c4e23de8d72c94b22992bd4d7b6786b215ba876af214ff63e6a0ca38fc97af490600090a250565b6000610b636114c6565b905090565b6001600160a01b0381163314610b915760405163334bd91960e11b815260040160405180910390fd5b610b9b82826115f1565b505050565b610bb860008051602061273b833981519152336110e4565b610bd45760405162461bcd60e51b815260040161078d90612643565b610bdc61161e565b565b336000818152600b602052604090205460ff1615610c1a57604051638af9883b60e01b81526001600160a01b038216600482015260240161078d565b610c243383611670565b81600d6000828254610c369190612630565b909155505060405182815233907fcc16f5dbb4873280815c1ee09dbd06736cffcc184412cf7a71a0fdb75d397ca5906020015b60405180910390a25050565b610c8d60008051602061275b833981519152336110e4565b610ca95760405162461bcd60e51b815260040161078d90612684565b610cb382826116aa565b80600c6000828254610cc59190612630565b90915550506040518181526001600160a01b038316907f0f6798a560793a54c3bcfe86a93cde1e73087d944c0ea20544137d412139688590602001610c69565b610d106000336110e4565b610d2c5760405162461bcd60e51b815260040161078d906125d2565b6001600160a01b0381166000818152600b6020908152604091829020805460ff1916905590519182527fca5069937e68fd197927055037f59d7c90bf75ac104e6e375539ef480c3ad6ee91015b60405180910390a150565b336000818152600b602052604090205460ff1615610dc057604051638af9883b60e01b81526001600160a01b038216600482015260240161078d565b610dca84846111c5565b15610aea57815115610aea577fb0734c6ca9ae9b7406dd80224cb0488aed0928eef358da7449505fa59b8d7a2a82604051610e05919061219b565b60405180910390a150505050565b336001600160a01b038316148015610e3a5750336000908152600b602052604090205460ff165b15610e5a57604051638af9883b60e01b815233600482015260240161078d565b336001600160a01b03831614610ed857610e8260008051602061271b833981519152336110e4565b610ed85760405162461bcd60e51b815260206004820152602160248201527f43616c6c657220646f6573206e6f74206861732061204255524e45525f524f4c6044820152604560f81b606482015260840161078d565b610ee28282611670565b80600d6000828254610ef49190612630565b90915550506040518181526001600160a01b038316907fcc16f5dbb4873280815c1ee09dbd06736cffcc184412cf7a71a0fdb75d397ca590602001610c69565b6001600160a01b0381166000908152600860205260408120546106ce565b610f5d6000336110e4565b610f795760405162461bcd60e51b815260040161078d906125d2565b610f9160008051602061273b833981519152826113f9565b6040516001600160a01b038216907f2344001cd8deb0e4d38d4db424d7956b93abca3aa922ce7c5df2e4d46823add790600090a250565b610fe060008051602061273b833981519152336110e4565b610ffc5760405162461bcd60e51b815260040161078d90612643565b610bdc6116e0565b60006060806000806000606061101861171d565b61102061174a565b60408051600080825260208201909252600f60f81b9b939a50919850469750309650945092509050565b6110556000336110e4565b6110715760405162461bcd60e51b815260040161078d906125d2565b6001600160a01b0381166000818152600b6020908152604091829020805460ff1916600117905590519182527faf85b60d26151edd11443b704d424da6c43d0468f2235ebae3d1904dbc3230499101610d79565b6000828152600a602052604081206110dd9083611777565b9392505050565b60009182526009602090815260408084206001600160a01b0393909316845291905290205460ff1690565b6060600480546106e390612598565b61113660008051602061275b833981519152336110e4565b6111525760405162461bcd60e51b815260040161078d90612684565b61115c33826116aa565b80600c600082825461116e9190612630565b909155505060405181815233907f0f6798a560793a54c3bcfe86a93cde1e73087d944c0ea20544137d41213968859060200160405180910390a250565b6000818152600a602052604090206060906106ce90611783565b336000818152600b602052604081205490919060ff161561120457604051638af9883b60e01b81526001600160a01b038216600482015260240161078d565b33611210818686611790565b83600e60008282546112229190612630565b9091555060019695505050505050565b6000818152600a602052604081206106ce906117ef565b6112546000336110e4565b6112705760405162461bcd60e51b815260040161078d906125d2565b61128860008051602061275b833981519152826113f9565b6040516001600160a01b038216907f44f4322f8daa225d5f4877ad0f7d3dfba248a774396f3ca99405ed40a044fe8190600090a250565b834211156112e35760405163313c898160e11b81526004810185905260240161078d565b60007f6e71edae12b1b97f4d1f60370fef10105fa2faae0126114a169c64845d6126c98888886113308c6001600160a01b0316600090815260086020526040902080546001810190915590565b6040805160208101969096526001600160a01b0394851690860152929091166060840152608083015260a082015260c0810186905260e001604051602081830303815290604052805190602001209050600061138b826117f9565b9050600061139b82878787611826565b9050896001600160a01b0316816001600160a01b0316146113e2576040516325c0072360e11b81526001600160a01b0380831660048301528b16602482015260440161078d565b6113ed8a8a8a611453565b50505050505050505050565b60008281526009602052604090206001015461141481611484565b610aea83836115f1565b60006001600160e01b03198216637965db0b60e01b14806106ce57506301ffc9a760e01b6001600160e01b03198316146106ce565b610b9b8383836001611854565b60003361146e858285611929565b611479858585611790565b506001949350505050565b61148e81336119a2565b50565b60008061149e84846119db565b905080156110dd576000848152600a602052604090206114be9084611a6f565b509392505050565b6000306001600160a01b037f00000000000000000000000000000000000000000000000000000000000000001614801561151f57507f000000000000000000000000000000000000000000000000000000000000000046145b1561154957507f000000000000000000000000000000000000000000000000000000000000000090565b610b63604080517f8b73c3c69bb8fe3d512ecc4cf759cc79239f7b179b0ffacaa9a75d522b39400f60208201527f0000000000000000000000000000000000000000000000000000000000000000918101919091527f000000000000000000000000000000000000000000000000000000000000000060608201524660808201523060a082015260009060c00160405160208183030381529060405280519060200120905090565b6000806115fe8484611a84565b905080156110dd576000848152600a602052604090206114be9084611af1565b611626611b06565b6005805460ff191690557f5db9ee0a495bf2e6ff9c91a7834c1ba4fdd244a5e8aa4e537bd38aeae4b073aa335b6040516001600160a01b03909116815260200160405180910390a1565b6001600160a01b03821661169a57604051634b637e8f60e11b81526000600482015260240161078d565b6116a682600083611b29565b5050565b6001600160a01b0382166116d45760405163ec442f0560e01b81526000600482015260240161078d565b6116a660008383611b29565b6116e8611b83565b6005805460ff191660011790557f62e78cea01bee320cd4e420270b5ea74000d11b0c9f74754ebdbfc544b05a2586116533390565b6060610b637f00000000000000000000000000000000000000000000000000000000000000006006611ba7565b6060610b637f00000000000000000000000000000000000000000000000000000000000000006007611ba7565b60006110dd8383611c52565b606060006110dd83611c7c565b6001600160a01b0383166117ba57604051634b637e8f60e11b81526000600482015260240161078d565b6001600160a01b0382166117e45760405163ec442f0560e01b81526000600482015260240161078d565b610b9b838383611b29565b60006106ce825490565b60006106ce6118066114c6565b8360405161190160f01b8152600281019290925260228201526042902090565b60008060008061183888888888611cd8565b9250925092506118488282611da7565b50909695505050505050565b6001600160a01b03841661187e5760405163e602df0560e01b81526000600482015260240161078d565b6001600160a01b0383166118a857604051634a1406b160e11b81526000600482015260240161078d565b6001600160a01b0380851660009081526001602090815260408083209387168352929052208290558015610aea57826001600160a01b0316846001600160a01b03167f8c5be1e5ebec7d5bd14f71427d1e84f3dd0314c0f7b2291e5b200ac8c7c3b9258460405161191b91815260200190565b60405180910390a350505050565b6001600160a01b03838116600090815260016020908152604080832093861683529290522054600019811015610aea578181101561199357604051637dc7a0d960e11b81526001600160a01b0384166004820152602481018290526044810183905260640161078d565b610aea84848484036000611854565b6119ac82826110e4565b6116a65760405163e2517d3f60e01b81526001600160a01b03821660048201526024810183905260440161078d565b60006119e783836110e4565b611a675760008381526009602090815260408083206001600160a01b03861684529091529020805460ff19166001179055611a1f3390565b6001600160a01b0316826001600160a01b0316847f2f8788117e7eff1d82e926ec794901d17c78024a50270940304540a733656f0d60405160405180910390a45060016106ce565b5060006106ce565b60006110dd836001600160a01b038416611e60565b6000611a9083836110e4565b15611a675760008381526009602090815260408083206001600160a01b0386168085529252808320805460ff1916905551339286917ff6391f5c32d9c69d2a47ea670b442974b53935d1edc7fd64eb21e047a839171b9190a45060016106ce565b60006110dd836001600160a01b038416611ea7565b60055460ff16610bdc57604051638dfc202b60e01b815260040160405180910390fd5b611b31611b83565b6001600160a01b0383166000908152600b6020526040902054839060ff1615611b7857604051638af9883b60e01b81526001600160a01b038216600482015260240161078d565b610aea848484611f9a565b60055460ff1615610bdc5760405163d93c066560e01b815260040160405180910390fd5b606060ff8314611bc157611bba836120c4565b90506106ce565b818054611bcd90612598565b80601f0160208091040260200160405190810160405280929190818152602001828054611bf990612598565b8015611c465780601f10611c1b57610100808354040283529160200191611c46565b820191906000526020600020905b815481529060010190602001808311611c2957829003601f168201915b505050505090506106ce565b6000826000018281548110611c6957611c696126c5565b9060005260206000200154905092915050565b606081600001805480602002602001604051908101604052809291908181526020018280548015611ccc57602002820191906000526020600020905b815481526020019060010190808311611cb8575b50505050509050919050565b600080807f7fffffffffffffffffffffffffffffff5d576e7357a4501ddfe92f46681b20a0841115611d135750600091506003905082611d9d565b604080516000808252602082018084528a905260ff891692820192909252606081018790526080810186905260019060a0016020604051602081039080840390855afa158015611d67573d6000803e3d6000fd5b5050604051601f1901519150506001600160a01b038116611d9357506000925060019150829050611d9d565b9250600091508190505b9450945094915050565b6000826003811115611dbb57611dbb6126db565b03611dc4575050565b6001826003811115611dd857611dd86126db565b03611df65760405163f645eedf60e01b815260040160405180910390fd5b6002826003811115611e0a57611e0a6126db565b03611e2b5760405163fce698f760e01b81526004810182905260240161078d565b6003826003811115611e3f57611e3f6126db565b036116a6576040516335e2f38360e21b81526004810182905260240161078d565b6000818152600183016020526040812054611a67575081546001818101845560008481526020808220909301849055845484825282860190935260409020919091556106ce565b60008181526001830160205260408120548015611f90576000611ecb6001836126f1565b8554909150600090611edf906001906126f1565b9050808214611f44576000866000018281548110611eff57611eff6126c5565b9060005260206000200154905080876000018481548110611f2257611f226126c5565b6000918252602080832090910192909255918252600188019052604090208390555b8554869080611f5557611f55612704565b6001900381819060005260206000200160009055905585600101600086815260200190815260200160002060009055600193505050506106ce565b60009150506106ce565b6001600160a01b038316611fc5578060026000828254611fba9190612630565b909155506120379050565b6001600160a01b038316600090815260208190526040902054818110156120185760405163391434e360e21b81526001600160a01b0385166004820152602481018290526044810183905260640161078d565b6001600160a01b03841660009081526020819052604090209082900390555b6001600160a01b03821661205357600280548290039055612072565b6001600160a01b03821660009081526020819052604090208054820190555b816001600160a01b0316836001600160a01b03167fddf252ad1be2c89b69c2b068fc378daa952ba7f163c4a11628f55a4df523b3ef836040516120b791815260200190565b60405180910390a3505050565b606060006120d183612103565b604080516020808252818301909252919250600091906020820181803683375050509182525060208101929092525090565b600060ff8216601f8111156106ce57604051632cd44ac360e21b815260040160405180910390fd5b60006020828403121561213d57600080fd5b81356001600160e01b0319811681146110dd57600080fd5b6000815180845260005b8181101561217b5760208185018101518683018201520161215f565b506000602082860101526020601f19601f83011685010191505092915050565b6020815260006110dd6020830184612155565b80356001600160a01b03811681146121c557600080fd5b919050565b6000602082840312156121dc57600080fd5b6110dd826121ae565b600080604083850312156121f857600080fd5b612201836121ae565b946020939093013593505050565b634e487b7160e01b600052604160045260246000fd5b600082601f83011261223657600080fd5b813567ffffffffffffffff8111156122505761225061220f565b604051601f8201601f19908116603f0116810167ffffffffffffffff8111828210171561227f5761227f61220f565b60405281815283820160200185101561229757600080fd5b816020850160208301376000918101602001919091529392505050565b600080600080608085870312156122ca57600080fd5b6122d3856121ae565b93506122e1602086016121ae565b925060408501359150606085013567ffffffffffffffff81111561230457600080fd5b61231087828801612225565b91505092959194509250565b60008060006060848603121561233157600080fd5b61233a846121ae565b9250612348602085016121ae565b929592945050506040919091013590565b60006020828403121561236b57600080fd5b5035919050565b6000806040838503121561238557600080fd5b82359150612395602084016121ae565b90509250929050565b6000806000606084860312156123b357600080fd5b6123bc846121ae565b925060208401359150604084013567ffffffffffffffff8111156123df57600080fd5b6123eb86828701612225565b9150509250925092565b60ff60f81b8816815260e06020820152600061241460e0830189612155565b82810360408401526124268189612155565b606084018890526001600160a01b038716608085015260a0840186905283810360c08501528451808252602080870193509091019060005b8181101561247c57835183526020938401939092019160010161245e565b50909b9a5050505050505050505050565b600080604083850312156124a057600080fd5b50508035926020909101359150565b602080825282518282018190526000918401906040840190835b818110156124f05783516001600160a01b03168352602093840193909201916001016124c9565b509095945050505050565b600080600080600080600060e0888a03121561251657600080fd5b61251f886121ae565b965061252d602089016121ae565b95506040880135945060608801359350608088013560ff8116811461255157600080fd5b9699959850939692959460a0840135945060c09093013592915050565b6000806040838503121561258157600080fd5b61258a836121ae565b9150612395602084016121ae565b600181811c908216806125ac57607f821691505b6020821081036125cc57634e487b7160e01b600052602260045260246000fd5b50919050565b60208082526028908201527f43616c6c657220646f6573206e6f742068617320612044454641554c545f41446040820152674d494e5f524f4c4560c01b606082015260800190565b634e487b7160e01b600052601160045260246000fd5b808201808211156106ce576106ce61261a565b60208082526021908201527f43616c6c657220646f6573206e6f74206861732061205041555345525f524f4c6040820152604560f81b606082015260800190565b60208082526021908201527f43616c6c657220646f6573206e6f74206861732061204d494e5445525f524f4c6040820152604560f81b606082015260800190565b634e487b7160e01b600052603260045260246000fd5b634e487b7160e01b600052602160045260246000fd5b818103818111156106ce576106ce61261a565b634e487b7160e01b600052603160045260246000fdfe3c11d16cbaffd01df69ce1c404f6340ee057498f5f00246190ea54220576a84865d7a28e3265b37a6474929f336521b332c1681b933f6cb9f3376673440d862a9f2df0fed2c77648de5860a4cc508cd0818c85b8b8a1ab4ceeef8d981c8956a6a26469706673582212209ffc7b1d2726832dd75a1c017bb5173130b9472eda857c6f36fdb42c88e0f5c464736f6c634300081a0033",
  "linkReferences": {},
  "deployedLinkReferences": {}
}