{
  "_format": "hh-sol-artifact-1",
  "contractName": "ACL",
  "sourceName": "contracts/ACL.sol",
  "abi": [
    {
      "inputs": [],
      "name": "AccessControlBadConfirmation",
      "type": "error"
    },
    {
      "inputs": [
        {
          "internalType": "address",
          "name": "account",
          "type": "address"
        },
        {
          "internalType": "bytes32",
          "name": "neededRole",
          "type": "bytes32"
        }
      ],
      "name": "AccessControlUnauthorizedAccount",
      "type": "error"
    },
    {
      "anonymous": false,
      "inputs": [
        {
          "indexed": true,
          "internalType": "address",
          "name": "admin",
          "type": "address"
        }
      ],
      "name": "AdminGranted",
      "type": "event"
    },
    {
      "anonymous": false,
      "inputs": [
        {
          "indexed": true,
          "internalType": "address",
          "name": "admin",
          "type": "address"
        }
      ],
      "name": "AdminRevoked",
      "type": "event"
    },
    {
      "anonymous": false,
      "inputs": [
        {
          "indexed": true,
          "internalType": "address",
          "name": "burner",
          "type": "address"
        }
      ],
      "name": "BurnerGranted",
      "type": "event"
    },
    {
      "anonymous": false,
      "inputs": [
        {
          "indexed": true,
          "internalType": "address",
          "name": "burner",
          "type": "address"
        }
      ],
      "name": "BurnerRevoked",
      "type": "event"
    },
    {
      "anonymous": false,
      "inputs": [
        {
          "indexed": true,
          "internalType": "address",
          "name": "minter",
          "type": "address"
        }
      ],
      "name": "MinterGranted",
      "type": "event"
    },
    {
      "anonymous": false,
      "inputs": [
        {
          "indexed": true,
          "internalType": "address",
          "name": "minter",
          "type": "address"
        }
      ],
      "name": "MinterRevoked",
      "type": "event"
    },
    {
      "anonymous": false,
      "inputs": [
        {
          "indexed": true,
          "internalType": "address",
          "name": "pauser",
          "type": "address"
        }
      ],
      "name": "PauserGranted",
      "type": "event"
    },
    {
      "anonymous": false,
      "inputs": [
        {
          "indexed": true,
          "internalType": "address",
          "name": "pauser",
          "type": "address"
        }
      ],
      "name": "PauserRevoked",
      "type": "event"
    },
    {
      "anonymous": false,
      "inputs": [
        {
          "indexed": true,
          "internalType": "bytes32",
          "name": "role",
          "type": "bytes32"
        },
        {
          "indexed": true,
          "internalType": "bytes32",
          "name": "previousAdminRole",
          "type": "bytes32"
        },
        {
          "indexed": true,
          "internalType": "bytes32",
          "name": "newAdminRole",
          "type": "bytes32"
        }
      ],
      "name": "RoleAdminChanged",
      "type": "event"
    },
    {
      "anonymous": false,
      "inputs": [
        {
          "indexed": true,
          "internalType": "bytes32",
          "name": "role",
          "type": "bytes32"
        },
        {
          "indexed": true,
          "internalType": "address",
          "name": "account",
          "type": "address"
        },
        {
          "indexed": true,
          "internalType": "address",
          "name": "sender",
          "type": "address"
        }
      ],
      "name": "RoleGranted",
      "type": "event"
    },
    {
      "anonymous": false,
      "inputs": [
        {
          "indexed": true,
          "internalType": "bytes32",
          "name": "role",
          "type": "bytes32"
        },
        {
          "indexed": true,
          "internalType": "address",
          "name": "account",
          "type": "address"
        },
        {
          "indexed": true,
          "internalType": "address",
          "name": "sender",
          "type": "address"
        }
      ],
      "name": "RoleRevoked",
      "type": "event"
    },
    {
      "inputs": [],
      "name": "BURNER_ROLE",
      "outputs": [
        {
          "internalType": "bytes32",
          "name": "",
          "type": "bytes32"
        }
      ],
      "stateMutability": "view",
      "type": "function"
    },
    {
      "inputs": [],
      "name": "DEFAULT_ADMIN_ROLE",
      "outputs": [
        {
          "internalType": "bytes32",
          "name": "",
          "type": "bytes32"
        }
      ],
      "stateMutability": "view",
      "type": "function"
    },
    {
      "inputs": [],
      "name": "MINTER_ROLE",
      "outputs": [
        {
          "internalType": "bytes32",
          "name": "",
          "type": "bytes32"
        }
      ],
      "stateMutability": "view",
      "type": "function"
    },
    {
      "inputs": [],
      "name": "PAUSER_ROLE",
      "outputs": [
        {
          "internalType": "bytes32",
          "name": "",
          "type": "bytes32"
        }
      ],
      "stateMutability": "view",
      "type": "function"
    },
    {
      "inputs": [
        {
          "internalType": "bytes32",
          "name": "role",
          "type": "bytes32"
        }
      ],
      "name": "getRoleAdmin",
      "outputs": [
        {
          "internalType": "bytes32",
          "name": "",
          "type": "bytes32"
        }
      ],
      "stateMutability": "view",
      "type": "function"
    },
    {
      "inputs": [
        {
          "internalType": "bytes32",
          "name": "role",
          "type": "bytes32"
        },
        {
          "internalType": "uint256",
          "name": "index",
          "type": "uint256"
        }
      ],
      "name": "getRoleMember",
      "outputs": [
        {
          "internalType": "address",
          "name": "",
          "type": "address"
        }
      ],
      "stateMutability": "view",
      "type": "function"
    },
    {
      "inputs": [
        {
          "internalType": "bytes32",
          "name": "role",
          "type": "bytes32"
        }
      ],
      "name": "getRoleMemberCount",
      "outputs": [
        {
          "internalType": "uint256",
          "name": "",
          "type": "uint256"
        }
      ],
      "stateMutability": "view",
      "type": "function"
    },
    {
      "inputs": [
        {
          "internalType": "bytes32",
          "name": "role",
          "type": "bytes32"
        }
      ],
      "name": "getRoleMembers",
      "outputs": [
        {
          "internalType": "address[]",
          "name": "",
          "type": "address[]"
        }
      ],
      "stateMutability": "view",
      "type": "function"
    },
    {
      "inputs": [
        {
          "internalType": "address",
          "name": "admin",
          "type": "address"
        }
      ],
      "name": "grantAdmin",
      "outputs": [],
      "stateMutability": "nonpayable",
      "type": "function"
    },
    {
      "inputs": [
        {
          "internalType": "address",
          "name": "burner",
          "type": "address"
        }
      ],
      "name": "grantBurner",
      "outputs": [],
      "stateMutability": "nonpayable",
      "type": "function"
    },
    {
      "inputs": [
        {
          "internalType": "address",
          "name": "minter",
          "type": "address"
        }
      ],
      "name": "grantMinter",
      "outputs": [],
      "stateMutability": "nonpayable",
      "type": "function"
    },
    {
      "inputs": [
        {
          "internalType": "address",
          "name": "pauser",
          "type": "address"
        }
      ],
      "name": "grantPauser",
      "outputs": [],
      "stateMutability": "nonpayable",
      "type": "function"
    },
    {
      "inputs": [
        {
          "internalType": "bytes32",
          "name": "role",
          "type": "bytes32"
        },
        {
          "internalType": "address",
          "name": "account",
          "type": "address"
        }
      ],
      "name": "grantRole",
      "outputs": [],
      "stateMutability": "nonpayable",
      "type": "function"
    },
    {
      "inputs": [
        {
          "internalType": "bytes32",
          "name": "role",
          "type": "bytes32"
        },
        {
          "internalType": "address",
          "name": "account",
          "type": "address"
        }
      ],
      "name": "hasRole",
      "outputs": [
        {
          "internalType": "bool",
          "name": "",
          "type": "bool"
        }
      ],
      "stateMutability": "view",
      "type": "function"
    },
    {
      "inputs": [
        {
          "internalType": "bytes32",
          "name": "role",
          "type": "bytes32"
        },
        {
          "internalType": "address",
          "name": "callerConfirmation",
          "type": "address"
        }
      ],
      "name": "renounceRole",
      "outputs": [],
      "stateMutability": "nonpayable",
      "type": "function"
    },
    {
      "inputs": [
        {
          "internalType": "address",
          "name": "admin",
          "type": "address"
        }
      ],
      "name": "revokeAdmin",
      "outputs": [],
      "stateMutability": "nonpayable",
      "type": "function"
    },
    {
      "inputs": [
        {
          "internalType": "address",
          "name": "burner",
          "type": "address"
        }
      ],
      "name": "revokeBurner",
      "outputs": [],
      "stateMutability": "nonpayable",
      "type": "function"
    },
    {
      "inputs": [
        {
          "internalType": "address",
          "name": "minter",
          "type": "address"
        }
      ],
      "name": "revokeMinter",
      "outputs": [],
      "stateMutability": "nonpayable",
      "type": "function"
    },
    {
      "inputs": [
        {
          "internalType": "address",
          "name": "pauser",
          "type": "address"
        }
      ],
      "name": "revokePauser",
      "outputs": [],
      "stateMutability": "nonpayable",
      "type": "function"
    },
    {
      "inputs": [
        {
          "internalType": "bytes32",
          "name": "role",
          "type": "bytes32"
        },
        {
          "internalType": "address",
          "name": "account",
          "type": "address"
        }
      ],
      "name": "revokeRole",
      "outputs": [],
      "stateMutability": "nonpayable",
      "type": "function"
    },
    {
      "inputs": [
        {
          "internalType": "bytes4",
          "name": "interfaceId",
          "type": "bytes4"
        }
      ],
      "name": "supportsInterface",
      "outputs": [
        {
          "internalType": "bool",
          "name": "",
          "type": "bool"
        }
      ],
      "stateMutability": "view",
      "type": "function"
    }
  ],
  "bytecode": "0x6080604052348015600f57600080fd5b50610e578061001f6000396000f3fe608060405234801561001057600080fd5b50600436106101375760003560e01c806336568abe116100b8578063a3246ad31161007c578063a3246ad3146102af578063ca15c873146102cf578063cfbd4885146102e2578063d5391393146102f5578063d547741f1461031c578063e63ab1e91461032f57600080fd5b806336568abe146102435780637fe76df0146102565780639010d07c1461026957806391d1485414610294578063a217fddf146102a757600080fd5b8063261707fa116100ff578063261707fa146101d0578063282c51f3146101e35780632d3456701461020a5780632f2ff15d1461021d57806335bb3e161461023057600080fd5b806301ffc9a71461013c5780630900cc331461016457806309c1d95f1461017957806310511f961461018c578063248a9ca31461019f575b600080fd5b61014f61014a366004610c78565b610356565b60405190151581526020015b60405180910390f35b610177610172366004610cbe565b610381565b005b610177610187366004610cbe565b610412565b61017761019a366004610cbe565b61049a565b6101c26101ad366004610cd9565b60009081526020819052604090206001015490565b60405190815260200161015b565b6101776101de366004610cbe565b610522565b6101c27f3c11d16cbaffd01df69ce1c404f6340ee057498f5f00246190ea54220576a84881565b610177610218366004610cbe565b6105aa565b61017761022b366004610cf2565b610613565b61017761023e366004610cbe565b61063e565b610177610251366004610cf2565b6106a7565b610177610264366004610cbe565b6106df565b61027c610277366004610d1e565b610767565b6040516001600160a01b03909116815260200161015b565b61014f6102a2366004610cf2565b610786565b6101c2600081565b6102c26102bd366004610cd9565b6107af565b60405161015b9190610d40565b6101c26102dd366004610cd9565b6107c9565b6101776102f0366004610cbe565b6107e0565b6101c27f9f2df0fed2c77648de5860a4cc508cd0818c85b8b8a1ab4ceeef8d981c8956a681565b61017761032a366004610cf2565b610868565b6101c27f65d7a28e3265b37a6474929f336521b332c1681b933f6cb9f3376673440d862a81565b60006001600160e01b03198216635a05180f60e01b148061037b575061037b8261088d565b92915050565b61038c600033610786565b6103b15760405162461bcd60e51b81526004016103a890610d8c565b60405180910390fd5b6103db7f3c11d16cbaffd01df69ce1c404f6340ee057498f5f00246190ea54220576a84882610868565b6040516001600160a01b038216907f95c68d58c8bb46dbb61ce85935e1c7558c94f50b79251867d374173c34ecc6c690600090a250565b61041d600033610786565b6104395760405162461bcd60e51b81526004016103a890610d8c565b6104637f65d7a28e3265b37a6474929f336521b332c1681b933f6cb9f3376673440d862a82610613565b6040516001600160a01b038216907faf52411d3c2de882b339a7ab926d658798c3e4a77e57c81895c85229688289d590600090a250565b6104a5600033610786565b6104c15760405162461bcd60e51b81526004016103a890610d8c565b6104eb7f3c11d16cbaffd01df69ce1c404f6340ee057498f5f00246190ea54220576a84882610613565b6040516001600160a01b038216907fc22f252d7900b40b2cc955d3ee09048650c045668ae04007da66434d98d1da3090600090a250565b61052d600033610786565b6105495760405162461bcd60e51b81526004016103a890610d8c565b6105737f9f2df0fed2c77648de5860a4cc508cd0818c85b8b8a1ab4ceeef8d981c8956a682610613565b6040516001600160a01b038216907f93e15a6550ecfc8e6edd98132363907de724eed6c5d89ce96917f4d4ff4da1f390600090a250565b6105b5600033610786565b6105d15760405162461bcd60e51b81526004016103a890610d8c565b6105dc600082610868565b6040516001600160a01b038216907f631ff1c4e1a02c54b480a34b810e03bcee61fe38efcb243930a7f820914923e290600090a250565b60008281526020819052604090206001015461062e816108c2565b61063883836108cf565b50505050565b610649600033610786565b6106655760405162461bcd60e51b81526004016103a890610d8c565b610670600082610613565b6040516001600160a01b038216907f1c4e23de8d72c94b22992bd4d7b6786b215ba876af214ff63e6a0ca38fc97af490600090a250565b6001600160a01b03811633146106d05760405163334bd91960e11b815260040160405180910390fd5b6106da8282610904565b505050565b6106ea600033610786565b6107065760405162461bcd60e51b81526004016103a890610d8c565b6107307f65d7a28e3265b37a6474929f336521b332c1681b933f6cb9f3376673440d862a82610868565b6040516001600160a01b038216907f2344001cd8deb0e4d38d4db424d7956b93abca3aa922ce7c5df2e4d46823add790600090a250565b600082815260016020526040812061077f9083610931565b9392505050565b6000918252602082815260408084206001600160a01b0393909316845291905290205460ff1690565b600081815260016020526040902060609061037b9061093d565b600081815260016020526040812061037b9061094a565b6107eb600033610786565b6108075760405162461bcd60e51b81526004016103a890610d8c565b6108317f9f2df0fed2c77648de5860a4cc508cd0818c85b8b8a1ab4ceeef8d981c8956a682610868565b6040516001600160a01b038216907f44f4322f8daa225d5f4877ad0f7d3dfba248a774396f3ca99405ed40a044fe8190600090a250565b600082815260208190526040902060010154610883816108c2565b6106388383610904565b60006001600160e01b03198216637965db0b60e01b148061037b57506301ffc9a760e01b6001600160e01b031983161461037b565b6108cc8133610954565b50565b6000806108dc8484610991565b9050801561077f5760008481526001602052604090206108fc9084610a23565b509392505050565b6000806109118484610a38565b9050801561077f5760008481526001602052604090206108fc9084610aa3565b600061077f8383610ab8565b6060600061077f83610ae2565b600061037b825490565b61095e8282610786565b61098d5760405163e2517d3f60e01b81526001600160a01b0382166004820152602481018390526044016103a8565b5050565b600061099d8383610786565b610a1b576000838152602081815260408083206001600160a01b03861684529091529020805460ff191660011790556109d33390565b6001600160a01b0316826001600160a01b0316847f2f8788117e7eff1d82e926ec794901d17c78024a50270940304540a733656f0d60405160405180910390a450600161037b565b50600061037b565b600061077f836001600160a01b038416610b3e565b6000610a448383610786565b15610a1b576000838152602081815260408083206001600160a01b0386168085529252808320805460ff1916905551339286917ff6391f5c32d9c69d2a47ea670b442974b53935d1edc7fd64eb21e047a839171b9190a450600161037b565b600061077f836001600160a01b038416610b85565b6000826000018281548110610acf57610acf610dd4565b9060005260206000200154905092915050565b606081600001805480602002602001604051908101604052809291908181526020018280548015610b3257602002820191906000526020600020905b815481526020019060010190808311610b1e575b50505050509050919050565b6000818152600183016020526040812054610a1b5750815460018181018455600084815260208082209093018490558454848252828601909352604090209190915561037b565b60008181526001830160205260408120548015610c6e576000610ba9600183610dea565b8554909150600090610bbd90600190610dea565b9050808214610c22576000866000018281548110610bdd57610bdd610dd4565b9060005260206000200154905080876000018481548110610c0057610c00610dd4565b6000918252602080832090910192909255918252600188019052604090208390555b8554869080610c3357610c33610e0b565b60019003818190600052602060002001600090559055856001016000868152602001908152602001600020600090556001935050505061037b565b600091505061037b565b600060208284031215610c8a57600080fd5b81356001600160e01b03198116811461077f57600080fd5b80356001600160a01b0381168114610cb957600080fd5b919050565b600060208284031215610cd057600080fd5b61077f82610ca2565b600060208284031215610ceb57600080fd5b5035919050565b60008060408385031215610d0557600080fd5b82359150610d1560208401610ca2565b90509250929050565b60008060408385031215610d3157600080fd5b50508035926020909101359150565b602080825282518282018190526000918401906040840190835b81811015610d815783516001600160a01b0316835260209384019390920191600101610d5a565b509095945050505050565b60208082526028908201527f43616c6c657220646f6573206e6f742068617320612044454641554c545f41446040820152674d494e5f524f4c4560c01b606082015260800190565b634e487b7160e01b600052603260045260246000fd5b8181038181111561037b57634e487b7160e01b600052601160045260246000fd5b634e487b7160e01b600052603160045260246000fdfea26469706673582212205ff22084bf9a27c36907d98d12223264346d96c564f4cca2387940fe3a20e5e364736f6c634300081a0033",
  "linkReferences": {},
  "deployedLinkReferences": {}
}